:020000020000FC
:0200000045C0F9
:10008C0000E10EBF0FEF0DBF00E001BB0FEF02BB95
:10009C000FEF07BB00E008BB02E000939B0003E0FE
:1000AC00009398000093990008E000939A00009345
:1000BC009D0000B30E3F19F416D00C945F000D3F59
:1000CC0011F419D0F6CF0F3E11F41DD0F2CF0F3D25
:1000DC0011F421D0EECF0F3711F42DD0EACF0F3B16
:1000EC0041F721D0E6CF08BB0AE200939C0000EB5D
:1000FC0000939C00089508BB0AE200939C0000E862
:10010C0000939C00089508BB0AE200939C0000E950
:10011C0000939C00089508BB0AE200939C0000EA3F
:10012C0000939C00089508BB0AE200939C0008EC25
:10013C0000939C00089508BB0AE200939C0008EF12
:06014C0000939C000895E1
:00000001FF
