:020000020000FC
:0200000045C0F9
:08000400CDD01895B8D0189575
:040078002DD01895DA
:10008C0000E10EBF0FEF0DBF0FEF07BB00E008BB89
:10009C0000E001BB00E002B980E0A0E002E00093C8
:1000AC009B0003E00093980000E40093990008E99A
:1000BC0000939A000EE000939D0003E009BF0AE054
:1000CC0000936A007894FFCF10919C00012F007868
:1000DC00002321F41A3291F0153551F1552309F40E
:1000EC000895103B69F0103881F0103A99F01039EE
:1000FC00B1F0183CC9F1183FB9F0189551E00895CA
:10010C0000E690E608BB5527089500E090E008BB98
:10011C005527089500E408BB90E45527089500E2A4
:10012C0008BB90E25527089505E500939C000895BF
:10013C0050FF01D0089501E008BB09E36AE9A9BFAB
:10014C00A0939A0044E639D038D037D036D035D089
:10015C0009BF60939A008395833011F098BB089582
:10016C00A9BFA0939A00089500E908BB55270F93E7
:10017C004F930FB70F9300E008BB44E61ED000E48A
:10018C0008BB44E61AD000E608BB0F910FBF4F9195
:10019C000F9108950F934F930FB70F9300E008BB87
:1001AC0044E60BD000E208BB44E607D000E608BBEF
:1001BC000F910FBF4F910F9108954F932F933F9332
:1001CC0030EE2DEE2A95F1F73A95D9F74A95C1F70D
:0801DC003F912F914F9108950E
:00000001FF
