:020000020000FC
:0200000045C0F9
:080004006BD018957AD0189515
:10008C000FEF0DBF00E10EBF00EF07BB00E001BB9F
:10009C0003E002BB0AE000936A0003E009BF789416
:1000AC0080E0813081F0823081F000E608BB00B343
:1000BC0000950973013019F0023019F0F1CF81E08D
:1000CC00EFCF82E0EDCF04D0EBCF13D0E9CFE8CF68
:1000DC000F931F930FB70F9300E008BB14E61AD0D1
:1000EC0000E208BB14E616D00F910FBF1F910F91C1
:1000FC0008950F931F930FB70F9300E008BB14E6FE
:10010C0009D000E408BB14E605D00F910FBF1F9176
:10011C000F9108951F932F933F9330EE2DEE2A9558
:10012C00F1F73A95D9F71A95C1F73F912F911F9195
:02013C00089524
:00000001FF
