:020000020000FC
:0200000045C0F9
:1000040072D018957CD018955ED0189564D0189548
:10008C000FEF0DBF00E10EBF0FEF07BB00E008BB89
:10009C0000E001BB0FEF02BB0FEF00936A000FE013
:1000AC0009BF09E703BF09E705BD00E001BF03BDB8
:1000BC0021E13327112700E608BB7894FFCF1FEF0F
:1000CC0011BF13BD06B3007F0F6008BB189510E07D
:1000DC0011BF13BD06B3007F006008BB18950FEF6E
:1000EC00101741F0120F11BF13BD339506B3007FEB
:1000FC00032B08BB189500E0101741F0121B11BF21
:0E010C0013BD3A9506B3007F032B08BB189570
:00000001FF
