:020000020000FC
:0200000045C0F9
:10008C0000E10EBF0FEF0DBF222403D029D052D0B8
:10009C00FFCF3F924F922F92BF93AF93DF93CF93AB
:1000AC00FF93EF932224C2E0D1E0A0E0B1E0E0E0C6
:1000BC00F1E03D904990341831923C9048803408DE
:1000CC00319250F144244192E3CFE2CFEF91FF9172
:1000DC00CF91DF91AF91BF912F904F903F900895AA
:1000EC003F924F922F92BF93AF93DF93CF93FF9397
:1000FC00EF932224C2E0D1E0A0E0B1E0E0E0F1E037
:10010C003D904990340C31923C904880341C319293
:10011C0018F044244192BCCF4424421C4192B8CFE5
:10012C00EF91FF91CF91DF91AF91BF912F904F90B5
:10013C003F9008953F924F921F920F922F92BF9330
:10014C00AF93DF93CF93FF93EF931F932F932224BF
:10015C00C2E0D1E0E4E0F1E013E0A0E0B1E023E0A4
:10016C003D904880349C31904190030C141C30809D
:10017C00321C30821292029231962A9541F53197B7
:10018C0021961A9509F52F911F91EF91FF91CF911F
:10019C00DF91AF91BF912F900F901F904F903F9098
:1001AC0008953F924F921F920F922F92BF93AF934D
:1001BC00DF93CF93FF93EF931F932F932224C2E0EF
:1001CC00D1E0E4E0F1E012E0A0E0B1E022E03D900B
:1001DC004880349C31904190030C141C3080321CAC
:1001EC0030821292029231962A9589F73197219694
:1001FC001A9551F72F911F91EF91FF91CF91DF91AC
:10020C00AF91BF912F900F901F904F903F900895FA
:08021C00089551FDFF1EFFFFD4
:00000001FF
